:1000000045C0000060C000005EC000005CC0000091
:100010005AC0000058C0000056C0000054C0000084
:1000200052C0000050C000004EC000004CC0000094
:100030004AC0000048C00000E4C1000044C0000005
:1000400042C0000040C000003EC000003CC00000B4
:100050003AC0000038C0000036C0000034C00000C4
:1000600032C0000030C000002EC000002CC00000D4
:100070002AC0000028C0000026C0000024C00000E4
:1000800022C0000020C000001EC0000011241FBEBE
:10009000CFEFD0E1DEBFCDBF12E0A0E0B1E0E6E6F9
:1000A000F4E000E00BBF02C007900D92A03FB10743
:1000B000D9F722E0A0EFB2E001C01D92A43FB20741
:1000C000E1F75BD1CEC19CCF93B1906293B995E338
:1000D0009A95F1F7000093B19F7E93B993B19F7BFE
:1000E00093B993B1906893B98BBB85E38A95F1F787
:1000F000000083B18F7D83B9089593B1906293B965
:1001000095E39A95F1F7000093B19F7E93B993B16F
:10011000906493B993B19F7793B98BBB85E38A952C
:10012000F1F7000083B18F7D83B9089593B1906298
:1001300093B995E39A95F1F7000093B19F7E93B937
:1001400093B1906493B993B1906893B98BBB85E3F5
:100150008A95F1F7000083B18F7D83B9089593B13B
:10016000906293B995E39A95F1F7000093B190618D
:1001700093B993B19F7B93B993B1906893B98BBBBB
:1001800085E38A95F1F7000083B18F7D83B90895E7
:1001900093B1906293B995E39A95F1F7000093B10A
:1001A000906193B993B1906493B993B19F7793B9E8
:1001B0008BBB85E38A95F1F7000083B18F7D83B90E
:1001C000089593B1906293B995E39A95F1F7000081
:1001D00093B1906193B993B1906493B993B19068DE
:1001E00093B98BBB85E38A95F1F7000083B18F7DCE
:1001F00083B908951F93CF93DF93D62F142F88547C
:1002000095DFDA3048F49D2F990F9D0F892F880FC5
:100210008C5B5ADFC0E030C08D2F90E00A97982F9A
:10022000990F890F982F990F80E4890F66DFF2CF1D
:10023000DA3088F4812F90E08097FC01EE0FFF1FE9
:10024000EE0FFF1FE80FF91FE050FF4FEC0FF11DFD
:10025000808185DF10C0812F90E08097FC01EE0F38
:10026000FF1FEE0FFF1FE80FF91FE050FF4FEC0FCD
:10027000F11D80818DDFCF5FC530D0F2DA3018F408
:1002800080E06DDF02C080E083DFDF91CF911F91BE
:1002900008950F931F93CF93DF93062FEA0188549D
:1002A00045DF0A3040F4902F990F900F892F880F67
:1002B0008C5B0ADF41C0802F90E00A97982F990F3E
:1002C000890F982F990F80E4890F17DF35C00A3006
:1002D00011F480E412DF10E024C00A3088F4888131
:1002E00090E08097FC01EE0FFF1FEE0FFF1FE80F5D
:1002F000F91FE050FF4FE10FF11D808130DF10C08A
:10030000888190E08097FC01EE0FFF1FEE0FFF1F2A
:10031000E80FF91FE050FF4FE10FF11D808138DF3A
:100320001F5F1530D0F20A3018F480E018DF02C0E9
:1003300080E02EDF21960F5F88818111C8CFDF9189
:10034000CF911F910F9108951F93CF93DF9318EBD7
:10035000D0E00DC0812FEADE80E4E8DEC0E003C01B
:1003600080E02FDFCF5FC034D8F31F5FDF5FD8306E
:1003700088F3DF91CF911F9108958FEF8ABB88BBDF
:1003800087BB11BA82B910926500809364008FE335
:10039000CDDE88EBCBDE80E4C9DED6DF4BED52E06C
:1003A00060E080E076DF8BE08DBD8CED8CBD1FBC06
:1003B00084E08EBD87BF78941092F3021092F00211
:1003C0001092F1021092F2024091F302405D60E05F
:1003D00081E010DF4091F002405D61E081E00ADFE2
:1003E0004AE362E081E006DF4091F102405D63E0B4
:1003F00081E000DF4091F202405D64E081E0FADEDE
:10040000E3CF1F920F920FB60F9211248F9380911A
:10041000F2028F5F8093F2028A30E9F41092F202C6
:100420008091F1028F5F8093F1028630A1F41092E7
:10043000F1028091F0028F5F8093F0028A3059F4CC
:100440001092F0028091F3028F5F8093F302863066
:1004500011F41092F3028F910F900FBE0F901F9026
:060460001895F894FFCF8F
:10046600000000000000004F000000070007001415
:100476007F147F14242A7F2A1223130864623649C4
:100486005522500005030000001C224100004122B5
:100496001C0014083E081408083E080800503000E6
:1004A6000008080808080060600000201008040220
:1004B6003E5149453E00427F400042615149462136
:1004C60041454B311814127F1027454545393C4AA2
:1004D60049493001710905033649494936064949F2
:1004E600291E003636000000563600000814224148
:1004F60000141414141400412214080201510906B0
:10050600324979413E7E1111117E7F494949363E75
:10051600414141227F4141221C7F494949417F098E
:100526000909013E4149497A7F0808087F00417F51
:1005360041002040413F017F081422417F40404056
:10054600407F020C027F7F0408107F3E4141413EFE
:100556007F090909063E4151215E7F091929462670
:100566004949493201017F01013F4040403F1F2078
:1005760040201F3F4038403F63140814630708704B
:1005860008076151494543007F41410002040810B4
:10059600200041417F0004020102044040404040E7
:1005A600000102040020545454787F4844443838EB
:1005B60044444420384444487F3854545418087EF0
:1005C6000901020C5252523E7F0804047800047D51
:1005D60000002040443D007F1028440000417F4039
:1005E600007C0418047C7C080404783844444438AD
:1005F6007C14141408081414187C7C080404084895
:1006060054545420043F4440203C4040207C1C204D
:1006160040201C3C4030403C44281028440C50509C
:10062600503C4464544C44000836410000007700B6
:100636000000413608000804081008436C6F636B1D
:1006460020496E74657272757074205465737400F7
:00000001FF
